:020000040000FA
:040000008B17F5293C
:08000800FB000308FC000A08DC
:10001000FD008A1183120B1D1628FF0803191228F0
:10002000FF0315287E148B124B260B117D088A00C6
:100030007C088300FB0E7B0E09000008A00008006E
:10004000840A00088403A1001D28840A840A000889
:1000500084038403A20020282008800008002108CF
:10006000840A800084032C282208840A840A8000E1
:10007000840384032F280008A0070800840A0008CE
:100080008403A107031C3B28A00A3B28840A840A96
:10009000000884038403A207031C3E28A10A031D51
:1000A0003E28A00A3E280008A0020800840A000892
:1000B0008403A10203185328A0035328840A840A46
:1000C000000884038403A20203185628A103210A0E
:1000D000031D5628A00356280008200208006C20A3
:1000E000031D0800840A00082102080000082006F9
:1000F000803903196C280314A01B03100800762014
:10010000031D08007228A01BAE280800A01BC328EE
:100110000800A30A031D0800A20A031D0800A10A83
:10012000031D0800A00A0800A01BB528A028A01BDA
:10013000B528A228A01BB528A528A01BB528A9284A
:10014000A0099228A009A1098F28A009A109A20944
:100150008C28A009A109A209A30989287F30A00041
:10016000FF30A100FF30A20008008030A000003066
:10017000A1000030A2000800FF30A000FF30A10065
:10018000FF30A20008000030A0000030A1000030C5
:10019000A2000800A01BCD28DA28A920DA20A9286F
:1001A000A101A201A301A01BD728E6208328A92032
:1001B000E620A928A4000310A00CA10CA20CA30CFB
:1001C000A40BDB280800A101A201A301A4000310D5
:1001D000A30DA20DA10DA00D0318BC28A40BE728A8
:1001E0000800A01BFF28A008031DAE282108A000BE
:1001F0002208A1002308A200A01BAE280800200AA4
:10020000031DB5282108A0002208A1002308A20090
:10021000A01FB5280800A008031DBC282108A000C5
:100220002208A1002308A20008002208A300210838
:10023000A2002008A100A001A11BA0030800220821
:10024000A3002108A2002008A100A0010800A0012D
:10025000A10100380319080003100018A007A00C22
:10026000A10C8018A007A00CA10C0019A007A00CDD
:10027000A10C8019A007A00CA10C001AA007A00CCB
:10028000A10C801AA007A00CA10C001BA007A00CB9
:10029000A10C801BA007A00CA10C0800801F27291F
:1002A0008009800A27218009800A9728A400840AEF
:1002B00027212108A3002008A200840324084E213E
:1002C0002208A1070318A00A2308A200080020089A
:1002D000A20021084E212108A6002008A50022081E
:1002E0005621A401A51BA403243084004628A400A1
:1002F000840A27212108A3002008A20084032408DF
:1003000027212208A1070318A00A2308A200080039
:100310002008A200210827212108A6002008A50006
:1003200022087721A401A51BA403243084004628B9
:100330000008A200840A0008A3002208230403196D
:10034000AB29A21BAB29A01BAB290310A30DA20D47
:10035000A10DA00DA1292208AD29A200A3012430DE
:1003600084002C20A5010830A000263084002C2019
:10037000A001A1010310A20CA30C223084003E2096
:100380002008240203190310A50D2518CA292230BC
:1003900084005620A60BBA292508A00008002108D1
:1003A000A3002008A2003E20801BDC29223084000C
:1003B0006F20031CBC280800223084006F20031823
:1003C000C32808002108A3002008A2003E20801BAB
:1003D000EF29223084007F20031CAE280800223041
:1003E00084007F200318B52808000730A0001930CA
:1003F00084002C200030A0009F3084002C2071301D
:10040000A0008F3084002C20813084008012801165
:100410008130840000148014001500100011252A7A
:100420002008FF0021040319A10A2108003C8100D3
:100430000318FF030B118B167E100800FF008101CB
:100440001A2AFF01003C81001A2A8312901010160C
:100450009016382A8E018F0110140C1008000F0816
:10046000A0000E08A1000F082002031D2F2A08007B
:10047000831283128C13592A83169B00572A8316E2
:100480001C1483161A08572A83161B08572A83162A
:100490009B0A572A83169B03572A83169B07572AC2
:1004A0003F228000840A4722A003031D502A8312A2
:1004B00008008312602AFF30A000FF30A10008006E
:1004C00083161F169F161F17892AA000203084004C
:1004D00083129F011F140018732A83161F147C2295
:1004E00083161F10792A1F1583169F147C228316EA
:1004F0009F108312A00008000A30FF3E031D7D2AD2
:1005000083129F149F18822A83121E0883121F10C1
:1005100008008312BB2AA200223084002008272171
:100520002108A20020084D223F22A30047223F229B
:10053000A4002408A1002308A0002208A20021088A
:10054000A4002008A300FF30A00022308400532024
:1005500023308400200827212108A6002008A500B8
:10056000223084001D2024308400200827212530DB
:1005700084003E2008008316051185129501831220
:10058000831225266B268E260030A00020083C22F0
:100590000830A0002C3084005022B40185122A2299
:1005A0005F225B22FF30A400243084006C20031DF6
:1005B000C42A0F08A0000130E3202E3084006C20F4
:1005C0000318CD2A6D26031CD12A3608A900350848
:1005D000A8002F222A22353084002F20B40A34307C
:1005E00084001D200330A400243084006C200318F4
:1005F000FA2AD12A353084002020283084003E2079
:10060000353084002F20A1262526B401BB01BC0172
:100610002F08BD00FF30A000FF30A100373084005C
:100620002F205F22E030A00020085F221030A000C1
:100630002D1CA00A20085F228F26031D282B8F2641
:10064000031D282B0D30A00020083C223F22A000D3
:1006500020085F224E3084002C20283084002C207B
:100660003030A0004F3084002C2020083C223F2254
:10067000A000283084006C200318442B1830A00000
:100680004F3084003B20322B283084005320200838
:100690004D2247223F22A000503084002C200330FE
:1006A000A00020084D223F22A000603084002C20B2
:1006B0000830A0007C230830A00051308400502274
:1006C0005108BE00501C652BAC14FF30A000573001
:1006D00084002C20583084002C20593084002C2099
:1006E0005A3084002C205B3084002C205C30840045
:1006F0002C20DD018623BA2B4F3084003B202008BC
:100700003C2208007C233F22A0000800DD080319DA
:100710008C2BDF0803199F2B1030A0005D30840064
:100720003B207C230230A0005E3084005022023047
:10073000A0005D3084003B205D3084002C205830C8
:1007400084001D20573084002C205E308400200857
:100750002721583084002C205B3084001D205A3023
:1007600084002C205F308400200827215B30840027
:100770002C2008000F08A0003D3084006C200318D6
:10078000E02D6D26031CBA2BB41FCC2B2F222A225E
:10079000393084003E20ED2B2F222A22393084006C
:1007A0002F20353084005620A01BA2202830840042
:1007B0002F203930840020200130E420353084009F
:1007C0005620A01BA220283084006F2039308400DE
:1007D00020200318ED2BB417BA2B353084002F20BE
:1007E0000330E4202C18F62B20085F22B413353098
:1007F00084001D2023213B3084003E203B308400B8
:100800002F20341B662C3826A126B5252C180A2C3F
:1008100020085F223F08C90020244A3084001D20A0
:10082000323084006C20031C182C323084001D20D0
:100830004A3084002C202C181F2C20085F22BA2B51
:100840003B30840020200130A400F430A500243087
:1008500084006F200318492C353084002020373065
:1008600084006F2003183E2C373084002F20B40101
:10087000FF30A0004A3084002C200800B40A343035
:1008800084001D200330A400243084006C20031C4D
:10089000382CB4013417B701B801AC18582C3F30CC
:1008A00084001D20603084006C20031C582CB00193
:1008B000D101563084001D204930840020082721B2
:1008C0000230E420563084002C200800851664266F
:1008D000B41A742C3826353084001D203030840042
:1008E0006C20031C742CB4160230A0000030A10050
:1008F000353084006F20031C802C3530840020208C
:100900009720353084003E20393084002F20373046
:1009100084002020353084003E20373084002F2092
:10092000B226C726B5252C18972C20085F22D10A9D
:100930004130840020200330D120603084002C20FE
:100940003F3084001D2043308400200856210330AE
:10095000CA20F120613084002F20523084001D20F5
:10096000A01BA0206030840020084E21D21FB92C8B
:10097000A220613084003E20283084002F20603087
:1009800084001D20543084005320293084002C2002
:10099000533084001D20A01BA02029308400200893
:1009A0004E21D31FD42CA220613084003E20293058
:1009B00084002C20A81B082DA91B082DDC08031D72
:1009C000E92C553084001D2059308400200827214F
:1009D000282DFF30A000553084005320283084009B
:1009E0002C20603084001D2086205C08AD2128303A
:1009F000840020082721283084002C20FF30A0000C
:100A00002830840053205930840020082721282DC5
:100A1000513084001D205608AD21283084002C2040
:100A200057308400202028089E22593084002C2032
:100A30005A308400202028089E2254308400200848
:100A400027215C3084002C20593084001D20282D63
:100A500050308400200827214A3084002C20373071
:100A600084001D202F3084006C20031C3F2D2F306C
:100A700084005320373084002F20F030B4053B3001
:100A8000840020200330A400E830A5002430840036
:100A90006F2003185B2D493084001D203F308400F7
:100AA0005320A01BA0200930A400243084006C2017
:100AB00003183416622D341A622D4E3084001D2026
:100AC000A925692D86252F22393084006F20031C2B
:100AD000622DB41A28264A3084001D202C18722D4D
:100AE00020085F228512E630A000353084002008FF
:100AF0007721393084002F202C1DBA2B2F2239303A
:100B000084006F20031C7E2D6126BA2B0F30340524
:100B10008A0005308A060A068A06913E03188A0A68
:100B20008200962DA22DA42DA62DA82D5130840033
:100B30001D20563084006C20031CA02D8623D1017B
:100B4000B40A0800B40A0800B40A0800B40A08008D
:100B5000080020083C222830A00020084D223F2217
:100B6000A0004A3084002C2008002D3084001D2075
:100B70000430A400243084006C200318D92D2008F0
:100B80008A0005308A060A068A06C93E03188A0AC0
:100B90008200CD2DD12DD72DD82D3F3084001D20A2
:100BA00008004130840020200330D12008000800D4
:100BB00008002018DF2D5C3084001D20DF2D080088
:100BC00085165E264130A0008F3084002C20B501B0
:100BD000B6014A3084001D20AC1CF02DE530A00089
:100BE0000330DA204A3084002C200515353084008B
:100BF0002020A10A031DFD2DA00A353084002F20DE
:100C00000330A400243084006C20AC1C0C2E0A306D
:100C1000A400243084006C200318002801308400D4
:100C20001D201F30A0054A3084006C20031C0E2EAE
:100C30000511013084001D201F30A0054A308400BA
:100C40006C200318192E0515F62DCA01CC015E2E55
:100C500041264C3084002C204B180800CC08031986
:100C6000080005154B14CB140830DA2010220800B8
:100C70004126353084002008772110220515CB014C
:100C800008001830A00020083C224A3084001D20B3
:100C90000F308B2208004B1C5E2ECB18582ECB1425
:100CA0004B19532E05154C08FF3C81008B1608008C
:100CB000CB1005114C0881008B160800CB010511E3
:100CC00008004B15051108004B1D0800CB1C692EB0
:100CD00005154B110800851608000314051A0310AA
:100CE000CD0C0318792E4D10E0304D0203184D1431
:100CF00008004D1410304D02031C4D100310080065
:100D00000314051A0310A001A00D20085F220B3068
:100D1000A00020085F2220085F220800080006309B
:100D2000A000031108008F2620085F2228308400CD
:100D30001D2020085F22293084001D2020085F220A
:100D40000800BF01C001C101C101C201C3013330AC
:100D500084001D2023213530840098213F308400F9
:100D60002C200800313084001D200130E320473062
:100D700084002C20313084001D2031308400200874
:100D800027210430E420483084002C20080006305D
:100D9000A0004730A100AE30A200283084003420EB
:100DA0003530840020203F308400882183200530A6
:100DB000CA20F120A520283084004620F1204530AB
:100DC00084002F20473084001D20453084002008F7
:100DD00056210530CA203F3084003E203F30840039
:100DE0002F203530840020204130840067210730D7
:100DF000CA20F1203F3084003E203F3084002F2065
:100E00003E3084001D204A30840020082721232101
:100E10008320A2203F3084003E203F3084002F20DA
:100E2000483084001D2045308400200856210330BE
:100E3000CA20433084002F20413084003E204130BE
:060E400084002F200800D1
:02400E00D430AC
:10420000000001000E00140014002800C800C800BF
:0842180005000400DB00B60004
:0A42200092006D0048002400000029
:1042300014001E002D003C0044005500660077006D
:1042400088009900AA00BB00CC00DD00EE00FF0052
:0E42500005002D0055007D00A500CD00F500F5
:1042600006007800780078000000000000000000E0
:10427000F0006400F40032003C0032000000000056
:10428000FA00FF00E600AA00E1000100DC000000E7
:00000001FF
