:020000040000FA
:040000008B17F6293B
:08000800FB000308FC000A08DC
:10001000FD008A11831203130B1D1728FF08031913
:100020001328FF0316287E148B1237260B117D0828
:100030008A007C088300FB0E7B0E09000008A000EC
:100040000800840A00088403A1001E28840A840A88
:10005000000884038403A2002128200880000800EF
:100060002108840A800084032D282208840A840A37
:1000700080008403840330280008A0070800840A55
:1000800000088403A107031C3C28A00A3C28840A1A
:10009000840A000884038403A207031C3F28A10AE2
:1000A000031D3F28A00A3F280008A0020800840A78
:1000B00000088403A10203185428A0035428840ACA
:1000C000840A000884038403A20203185728A103AA
:1000D000210A031D5728A003572800082002080002
:1000E0006D20031D0800840A000821020800000892
:1000F0002006803903196D280314A01B0310080083
:100100007720031D08007328A01BAF280800A01B40
:10011000C4280800A30A031D0800A20A031D080042
:10012000A10A031D0800A00A0800A01BB628A128E8
:10013000A01BB628A328A01BB628A628A01BB6285B
:10014000AA28A0099328A009A1099028A009A1091B
:10015000A2098D28A009A109A209A3098A287F3034
:10016000A000FF30A100FF30A20008008030A000F6
:100170000030A1000030A2000800FF30A000FF30D6
:10018000A100FF30A20008000030A0000030A10054
:100190000030A2000800A01BCE28DB28AA20DB200C
:1001A000AA28A101A201A301A01BD828E720842826
:1001B000AA20E720AA28A4000310A00CA10CA20CDE
:1001C000A30CA40BDC280800A101A201A301A40038
:1001D0000310A30DA20DA10DA00D0318BD28A40BA3
:1001E000E8280800A01B0029A008031DAF2821084B
:1001F000A0002208A1002308A200A01BAF2808002D
:10020000200A031DB6282108A0002208A100230807
:10021000A200A01FB6280800A008031DBD282108C1
:10022000A0002208A1002308A20008002208A300C1
:100230002108A2002008A100A001A11BA003080022
:100240002208A3002108A2002008A100A0010800A4
:10025000A001A10100380319080003100018A0072D
:10026000A00CA10C8018A007A00CA10C0019A007DD
:10027000A00CA10C8019A007A00CA10C001AA007CB
:10028000A00CA10C801AA007A00CA10C001BA007B9
:10029000A00CA10C801BA007A00CA10C0800801FC3
:1002A00028298009800A28218009800A9828A4002A
:1002B000840A28212108A3002008A200840324081E
:1002C0004F212208A1070318A00A2308A200080052
:1002D0002008A20021084F212108A6002008A5001F
:1002E00022085721A401A51BA40324308400472819
:1002F000A400840A28212108A3002008A200840366
:10030000240828212208A1070318A00A2308A20014
:1003100008002008A200210828212108A6002008A2
:10032000A50022087821A401A51BA4032430840081
:1003300047280008A200840A0008A300220823041A
:100340000319AC29A21BAC29A01BAC290310A30DD7
:10035000A20DA10DA00DA2292208AE29A200A30181
:10036000243084002D20A5010830A0002630840010
:100370002D20A001A1010310A20CA30C22308400A7
:100380003F202008240203190310A50D2518CB29AE
:10039000223084005720A60BBB292508A0000800A6
:1003A0002108A3002008A2003F20801BDD29223065
:1003B00084007020031CBD280800223084007020B7
:1003C0000318C42808002108A3002008A2003F2029
:1003D000801BF029223084008020031CAF280800F5
:1003E0002230840080200318B62808000730A000BF
:1003F000193084002D200030A000913084002D2081
:100400007130A0008F3084002D2081308400801254
:100410008011813084000014801400150010001138
:10042000262A2008FF0021040319A10A2108003C04
:1004300081000318FF030B118B167E100800FF00CC
:1004400081011B2AFF01003C81001B2A8312031338
:100450009010101690163A2A8E018F0110140C106D
:1004600008000F08A0000E08A1000F082002031DBD
:10047000312A080083120313831203138C1383168B
:1004800003139C13692A831603139B00662A8316A1
:1004900003139C131C14831603131A08662A83166D
:1004A00003131B08662A831603139B0A662A831606
:1004B00003139B03662A831603139B07662A4722AE
:1004C0008000840A5322A003031D5F2A83120313B2
:1004D0000800831203138A1536288A1545208A11CD
:1004E00008008A155D208A1108008A1561208A118A
:1004F00008008A1565208A110800831203138316E9
:1005000003131F169F161F17B22AA0002030840065
:10051000831203139F011F140018962A83160313D6
:100520001114A2228316031311109E2A1F1583167D
:1005300003139114A2228316031391108312031341
:10054000A00008000A30FF3E031DA32A83120313F4
:100550009F149F18A92A831203131E0883120313E2
:100560001F10080083120313E52AA2002230840022
:10057000200828212108A20020085B224722A3008E
:1005800053224722A4002408A1002308A000220827
:10059000A2002108A4002008A300FF30A000223000
:1005A0008400542023308400200828212108A6003C
:1005B0002008A500223084001E202430840020085A
:1005C0002821253084003F200800831603130710DC
:1005D0008710071283120313112657267A2600303C
:1005E000A000200843220830A0002C3084005F22A5
:1005F000B40187102C2271227922FF30A40024300C
:1006000084006D20031DEF2A0F08A0000130E420B4
:100610002E3084006D200318F82A5926031CFC2A6A
:100620003608A9003508A80031222C223530840074
:100630003020B40A343084001E200330A40024305B
:1006400084006D200318252BFC2A353084002120DE
:10065000283084003F20353084003020BA2611260F
:10066000B401BB01BC012F08BD00FF30A000FF306A
:10067000A1003730840030207522E030A00020082F
:100680006D221030A0002D1CA00A20086D227B26B0
:10069000031D532B7B26031D532B0D30A000200878
:1006A00043224722A00020086D224E3084002D20D6
:1006B000283084002D203030A0004F3084002D20C1
:1006C000200843224722A000283084006D20031810
:1006D0006F2B1830A0004F3084003C205D2B283059
:1006E0008400542020085B2253224722A00050306F
:1006F00084002D200830A0009E230830A000513037
:1007000084005F225108BE00501C872BAC14FF30C0
:10071000A000573084002D20583084002D205930FF
:1007200084002D205A3084002D205B3084002D2041
:100730005C3084002D20DD01A823DC2B4F308400A9
:100740003C202008432208009E234722A0000800E6
:10075000DD080319AE2BDF080319C12B1030A000F0
:100760005D3084003C209E230230A0005E30840077
:100770005F220230A0005D3084003C205D308400A8
:100780002D20583084001E20573084002D205E30EC
:10079000840020082821583084002D205B308400FC
:1007A0001E205A3084002D205F308400200828212C
:1007B0005B3084002D2008000F08A0003D3084002D
:1007C0006D200318CC2D5926031CDC2BB41FEE2BF7
:1007D00031222C22393084003F200F2C31222C2250
:1007E000393084003020353084005720A01BA320EE
:1007F0002830840030203930840021200130E52069
:10080000353084005720A01BA3202830840070209E
:1008100039308400212003180F2CB417DC2B35301D
:10082000840030200330E5202C18182C20086D227D
:10083000B413353084001E2024213B3084003F2037
:100840003B3084003020341B802C2426BA26A1257E
:100850002C182C2C20086D223F08C90042244A3055
:1008600084001E20323084006D20031C3A2C32306C
:1008700084001E204A3084002D202C18412C200892
:100880006D22DC2B3B30840021200130A400F430A9
:10089000A50024308400702003186B2C35308400B0
:1008A00021203730840070200318602C37308400FA
:1008B0003020B401FF30A0004A3084002D20080011
:1008C000B40A343084001E200330A4002430840095
:1008D0006D20031C5A2CB4013417B701B801AC18B1
:1008E000722CB001D101563084001E2049308400A2
:1008F000200828210230E520563084002D200800F1
:1009000087145026B41A8E2C2426353084001E20DD
:10091000303084006D20031C8E2CB4160230A000F1
:100920000030A100353084007020031C9A2C353033
:10093000840021209820353084003F203930840005
:100940003020373084002120353084003F2037307C
:1009500084003020CB26E026A1252C18B12C2008BD
:100960006D22D10A4130840021200330D220603032
:1009700084002D203F3084001E2043308400200856
:1009800057210330CB20F2206130840030205230D8
:1009900084001E20A01BA1206030840020084F216D
:1009A000D21FD32CA320613084003F202830840044
:1009B0003020603084001E205430840054202930C0
:1009C00084002D20533084001E20A01BA12029303C
:1009D000840020084F21D31FEE2CA3206130840017
:1009E0003F20293084002D20A81B222DA91B222D59
:1009F000DC08031D032D553084001E20593084006F
:100A000020082821422DFF30A000553084005420BA
:100A1000283084002D20603084001E2087205C0850
:100A2000AE212830840020082821283084002D2081
:100A3000FF30A00028308400542059308400200862
:100A40002821422D513084001E205608AE21283026
:100A500084002D205730840021202808C8225930D6
:100A600084002D205A30840021202808C8225430C8
:100A70008400200828215C3084002D205930840017
:100A80001E20422D50308400200828214A30840046
:100A90002D20373084001E202F3084006D20031C51
:100AA000592D2F3084005420373084003020F0300E
:100AB000B4057D253122393084007020031C592D66
:100AC000B41A14264A3084001E202C18692D2008E0
:100AD0006D228710E630A000353084002008782190
:100AE0003930840030202C1DDC2B31223930840039
:100AF0007020031C752D4D26DC2B0F3034058A0029
:100B000005308A060A068A06883E03188A0A820089
:100B10008D2D992D9B2D9D2D9F2D513084001E20B4
:100B2000563084006D20031C972DA823D101B40AF0
:100B30000800B40A0800B40A0800B40A0800080053
:100B400008002D3084001E200430A40024308400CE
:100B50006D200318C52D20088A0005308A060A0674
:100B60008A06B53E03188A0A8200B92DBD2DC32D11
:100B7000C42D3F3084001E20080041308400212015
:100B80000330D2200800080008002018CB2D5C306C
:100B900084001E20CB2D080087144A2683120313DD
:100BA00097138312031396128316031307168312E7
:100BB0000313B501B6014A3084001E20AC1CE22D9F
:100BC000E530A0004A3084002D2007143530840021
:100BD0002120A10A031DED2DA00A3530840030200C
:100BE0000330A400243084006D20AC1CFC2D0A309E
:100BF000A400243084006D200318002801308400F4
:100C00001E204A3084006D20031CFE2D0710013089
:100C100084001E204A3084006D200318072E07141C
:100C2000E62DCA01CC014A2E2D264C3084002D2001
:100C30004B180800CC080319080007144B14CB14F8
:100C40000830DB20112208002D26353084002008D2
:100C5000782111220714CB0108001830A0002008C9
:100C600043224A3084001E200F30B52208004B1C5E
:100C70004A2ECB18442ECB144B193F2E07144C0888
:100C8000FF3C81008B160800CB1007104C08810038
:100C90008B160800CB01071008004B150710080041
:100CA0004B1D0800CB1C552E07144B110800871450
:100CB0000800031405190310CD0C0318652E4D1000
:100CC000E0304D0203184D1408004D1410304D0251
:100CD000031C4D1003100800031405190310A00194
:100CE000A00D20086D220B30A00020086D222008E6
:100CF0006D2208000800003085222421283084005D
:100D000030200C30A000200843224722A0002A30C7
:100D100084002D200E30A00020084322AB01472282
:100D2000A000FF30A400243084006D200319AB2EF6
:100D30002421283084005720F220A01BA1202A3033
:100D400084006D20031CA72EAB0A53228F2E2B0884
:100D5000A0000311080008007B2620086D2228301F
:100D600084001E2020086D22293084001E202008C7
:100D70006D220800BF01C001C101C101C201C30150
:100D8000333084001E2024213530840099213F30E7
:100D900084002D200800313084001E200130E42022
:100DA000473084002D20313084001E2031308400F3
:100DB000200828210430E520483084002D20080038
:100DC0000630A0004730A100AE30A20028308400D9
:100DD00035203530840021203F3084008921842053
:100DE0000530CB20F220A620283084004720F220B6
:100DF000453084003020473084001E204530840078
:100E0000200857210530CB203F3084003F203F3061
:100E10008400302035308400212041308400682156
:100E20000730CB20F2203F3084003F203F30840049
:100E300030203E3084001E204A30840020082821C3
:100E400024218420A3203F3084003F203F308400B1
:100E50003020483084001E2045308400200857216F
:100E60000330CB20433084003020413084003F20C9
:080E700041308400302008002D
:10100000FF0081010B118B167E100800831603135D
:101010008B138B1B08281C15831603139A00831649
:10102000031355309D00AA309D009C148B171C1192
:10103000831203138C1F1A288C13F82883160313AA
:101040009B00F828831603139C131C1483160313A8
:101050001A08F828831603131B08F82883160313AD
:101060009B0AF828831603139B03F828971783120B
:1010700003131930930083120313161516129616D4
:101080008312031317168A117D2A831203138C1CF3
:101090004728831203139500F828831203131408BA
:1010A000F82803148310831203138C1EF82883146A
:1010B0008312031397180310F828831203131716CB
:1010C000F828831203131712F828FF30A000A1009C
:1010D0005120831CE428031CDE284D20A000C039C9
:1010E00003197628403C0319A728D3281E30002076
:1010F0007E18E4285120831C7828031CDE284D200C
:10110000A100201A8D28A01A95288400803045203F
:101110000408452000084520D3281E209030452093
:101120002A20452022204520D328E03045202108D0
:10113000452021088A0008308A060A068A06A33E4E
:1011400003188A0A8200E528EF28F328D3281E30E6
:1011500000207E18E4285120831CA928031CDE28C7
:101160004D20A100201AB6288400B7281E201E306A
:1011700000207E18E4285120831CB928031CDE2897
:101180004D20201ACB2880008030452004084520BF
:1011900000084520D3280620903045202A204520ED
:1011A00022204520D3281E3000207E18E42851201C
:1011B000831CD528031CDE284D20D32861201E3037
:1011C00000207E1CE1285D20080000301E20222027
:1011D00045202E202A200038031DE728D3288A1115
:1011E000AC268A15D3288A116C268A15D328D328D1
:0611F00083120313080046
:02400E00D430AC
:10420000040001000E001400140028006400C8001F
:0842180005000500DB00B60003
:0A42200092006D0048002400000029
:1042300014001E002D003C0044005500660077006D
:1042400088009900AA00BB00CC00DD00EE00FF0052
:06425000140028003C00F0
:104260000600E600E600E600E600E600E600E600FE
:104270005A006400F40032003C00320000000000EC
:10428000FA00FF00E600AA00E1000100DC000000E7
:00000001FF
